{
  "fileName": "CoreVault.sol",
  "contractName": "CoreVault",
  "source": "\n// File: @openzeppelin/contracts-ethereum-package/contracts/token/ERC20/IERC20.sol\n\npragma solidity ^0.6.0;\n\n/**\n * @dev Interface of the ERC20 standard as defined in the EIP.\n */\ninterface IERC20 {\n    /**\n     * @dev Returns the amount of tokens in existence.\n     */\n    function totalSupply() external view returns (uint256);\n\n    /**\n     * @dev Returns the amount of tokens owned by `account`.\n     */\n    function balanceOf(address account) external view returns (uint256);\n\n    /**\n     * @dev Moves `amount` tokens from the caller's account to `recipient`.\n     *\n     * Returns a boolean value indicating whether the operation succeeded.\n     *\n     * Emits a {Transfer} event.\n     */\n    function transfer(address recipient, uint256 amount) external returns (bool);\n\n    /**\n     * @dev Returns the remaining number of tokens that `spender` will be\n     * allowed to spend on behalf of `owner` through {transferFrom}. This is\n     * zero by default.\n     *\n     * This value changes when {approve} or {transferFrom} are called.\n     */\n    function allowance(address owner, address spender) external view returns (uint256);\n\n    /**\n     * @dev Sets `amount` as the allowance of `spender` over the caller's tokens.\n     *\n     * Returns a boolean value indicating whether the operation succeeded.\n     *\n     * IMPORTANT: Beware that changing an allowance with this method brings the risk\n     * that someone may use both the old and the new allowance by unfortunate\n     * transaction ordering. One possible solution to mitigate this race\n     * condition is to first reduce the spender's allowance to 0 and set the\n     * desired value afterwards:\n     * https://github.com/ethereum/EIPs/issues/20#issuecomment-263524729\n     *\n     * Emits an {Approval} event.\n     */\n    function approve(address spender, uint256 amount) external returns (bool);\n\n    /**\n     * @dev Moves `amount` tokens from `sender` to `recipient` using the\n     * allowance mechanism. `amount` is then deducted from the caller's\n     * allowance.\n     *\n     * Returns a boolean value indicating whether the operation succeeded.\n     *\n     * Emits a {Transfer} event.\n     */\n    function transferFrom(address sender, address recipient, uint256 amount) external returns (bool);\n\n    /**\n     * @dev Emitted when `value` tokens are moved from one account (`from`) to\n     * another (`to`).\n     *\n     * Note that `value` may be zero.\n     */\n    event Transfer(address indexed from, address indexed to, uint256 value);\n\n    /**\n     * @dev Emitted when the allowance of a `spender` for an `owner` is set by\n     * a call to {approve}. `value` is the new allowance.\n     */\n    event Approval(address indexed owner, address indexed spender, uint256 value);\n}\n\n// File: @openzeppelin/contracts-ethereum-package/contracts/math/SafeMath.sol\n\npragma solidity ^0.6.0;\n\n/**\n * @dev Wrappers over Solidity's arithmetic operations with added overflow\n * checks.\n *\n * Arithmetic operations in Solidity wrap on overflow. This can easily result\n * in bugs, because programmers usually assume that an overflow raises an\n * error, which is the standard behavior in high level programming languages.\n * `SafeMath` restores this intuition by reverting the transaction when an\n * operation overflows.\n *\n * Using this library instead of the unchecked operations eliminates an entire\n * class of bugs, so it's recommended to use it always.\n */\nlibrary SafeMath {\n    /**\n     * @dev Returns the addition of two unsigned integers, reverting on\n     * overflow.\n     *\n     * Counterpart to Solidity's `+` operator.\n     *\n     * Requirements:\n     * - Addition cannot overflow.\n     */\n    function add(uint256 a, uint256 b) internal pure returns (uint256) {\n        uint256 c = a + b;\n        require(c >= a, \"SafeMath: addition overflow\");\n\n        return c;\n    }\n\n    /**\n     * @dev Returns the subtraction of two unsigned integers, reverting on\n     * overflow (when the result is negative).\n     *\n     * Counterpart to Solidity's `-` operator.\n     *\n     * Requirements:\n     * - Subtraction cannot overflow.\n     */\n    function sub(uint256 a, uint256 b) internal pure returns (uint256) {\n        return sub(a, b, \"SafeMath: subtraction overflow\");\n    }\n\n    /**\n     * @dev Returns the subtraction of two unsigned integers, reverting with custom message on\n     * overflow (when the result is negative).\n     *\n     * Counterpart to Solidity's `-` operator.\n     *\n     * Requirements:\n     * - Subtraction cannot overflow.\n     */\n    function sub(uint256 a, uint256 b, string memory errorMessage) internal pure returns (uint256) {\n        require(b <= a, errorMessage);\n        uint256 c = a - b;\n\n        return c;\n    }\n\n    /**\n     * @dev Returns the multiplication of two unsigned integers, reverting on\n     * overflow.\n     *\n     * Counterpart to Solidity's `*` operator.\n     *\n     * Requirements:\n     * - Multiplication cannot overflow.\n     */\n    function mul(uint256 a, uint256 b) internal pure returns (uint256) {\n        // Gas optimization: this is cheaper than requiring 'a' not being zero, but the\n        // benefit is lost if 'b' is also tested.\n        // See: https://github.com/OpenZeppelin/openzeppelin-contracts/pull/522\n        if (a == 0) {\n            return 0;\n        }\n\n        uint256 c = a * b;\n        require(c / a == b, \"SafeMath: multiplication overflow\");\n\n        return c;\n    }\n\n    /**\n     * @dev Returns the integer division of two unsigned integers. Reverts on\n     * division by zero. The result is rounded towards zero.\n     *\n     * Counterpart to Solidity's `/` operator. Note: this function uses a\n     * `revert` opcode (which leaves remaining gas untouched) while Solidity\n     * uses an invalid opcode to revert (consuming all remaining gas).\n     *\n     * Requirements:\n     * - The divisor cannot be zero.\n     */\n    function div(uint256 a, uint256 b) internal pure returns (uint256) {\n        return div(a, b, \"SafeMath: division by zero\");\n    }\n\n    /**\n     * @dev Returns the integer division of two unsigned integers. Reverts with custom message on\n     * division by zero. The result is rounded towards zero.\n     *\n     * Counterpart to Solidity's `/` operator. Note: this function uses a\n     * `revert` opcode (which leaves remaining gas untouched) while Solidity\n     * uses an invalid opcode to revert (consuming all remaining gas).\n     *\n     * Requirements:\n     * - The divisor cannot be zero.\n     */\n    function div(uint256 a, uint256 b, string memory errorMessage) internal pure returns (uint256) {\n        // Solidity only automatically asserts when dividing by 0\n        require(b > 0, errorMessage);\n        uint256 c = a / b;\n        // assert(a == b * c + a % b); // There is no case in which this doesn't hold\n\n        return c;\n    }\n\n    /**\n     * @dev Returns the remainder of dividing two unsigned integers. (unsigned integer modulo),\n     * Reverts when dividing by zero.\n     *\n     * Counterpart to Solidity's `%` operator. This function uses a `revert`\n     * opcode (which leaves remaining gas untouched) while Solidity uses an\n     * invalid opcode to revert (consuming all remaining gas).\n     *\n     * Requirements:\n     * - The divisor cannot be zero.\n     */\n    function mod(uint256 a, uint256 b) internal pure returns (uint256) {\n        return mod(a, b, \"SafeMath: modulo by zero\");\n    }\n\n    /**\n     * @dev Returns the remainder of dividing two unsigned integers. (unsigned integer modulo),\n     * Reverts with custom message when dividing by zero.\n     *\n     * Counterpart to Solidity's `%` operator. This function uses a `revert`\n     * opcode (which leaves remaining gas untouched) while Solidity uses an\n     * invalid opcode to revert (consuming all remaining gas).\n     *\n     * Requirements:\n     * - The divisor cannot be zero.\n     */\n    function mod(uint256 a, uint256 b, string memory errorMessage) internal pure returns (uint256) {\n        require(b != 0, errorMessage);\n        return a % b;\n    }\n}\n\n// File: @openzeppelin/contracts-ethereum-package/contracts/utils/Address.sol\n\npragma solidity ^0.6.2;\n\n/**\n * @dev Collection of functions related to the address type\n */\nlibrary Address {\n    /**\n     * @dev Returns true if `account` is a contract.\n     *\n     * [IMPORTANT]\n     * ====\n     * It is unsafe to assume that an address for which this function returns\n     * false is an externally-owned account (EOA) and not a contract.\n     *\n     * Among others, `isContract` will return false for the following\n     * types of addresses:\n     *\n     *  - an externally-owned account\n     *  - a contract in construction\n     *  - an address where a contract will be created\n     *  - an address where a contract lived, but was destroyed\n     * ====\n     */\n    function isContract(address account) internal view returns (bool) {\n        // According to EIP-1052, 0x0 is the value returned for not-yet created accounts\n        // and 0xc5d2460186f7233c927e7db2dcc703c0e500b653ca82273b7bfad8045d85a470 is returned\n        // for accounts without code, i.e. `keccak256('')`\n        bytes32 codehash;\n        bytes32 accountHash = 0xc5d2460186f7233c927e7db2dcc703c0e500b653ca82273b7bfad8045d85a470;\n        // solhint-disable-next-line no-inline-assembly\n        assembly { codehash := extcodehash(account) }\n        return (codehash != accountHash && codehash != 0x0);\n    }\n\n    /**\n     * @dev Replacement for Solidity's `transfer`: sends `amount` wei to\n     * `recipient`, forwarding all available gas and reverting on errors.\n     *\n     * https://eips.ethereum.org/EIPS/eip-1884[EIP1884] increases the gas cost\n     * of certain opcodes, possibly making contracts go over the 2300 gas limit\n     * imposed by `transfer`, making them unable to receive funds via\n     * `transfer`. {sendValue} removes this limitation.\n     *\n     * https://diligence.consensys.net/posts/2019/09/stop-using-soliditys-transfer-now/[Learn more].\n     *\n     * IMPORTANT: because control is transferred to `recipient`, care must be\n     * taken to not create reentrancy vulnerabilities. Consider using\n     * {ReentrancyGuard} or the\n     * https://solidity.readthedocs.io/en/v0.5.11/security-considerations.html#use-the-checks-effects-interactions-pattern[checks-effects-interactions pattern].\n     */\n    function sendValue(address payable recipient, uint256 amount) internal {\n        require(address(this).balance >= amount, \"Address: insufficient balance\");\n\n        // solhint-disable-next-line avoid-low-level-calls, avoid-call-value\n        (bool success, ) = recipient.call{ value: amount }(\"\");\n        require(success, \"Address: unable to send value, recipient may have reverted\");\n    }\n}\n\n// File: @openzeppelin/contracts-ethereum-package/contracts/token/ERC20/SafeERC20.sol\n\npragma solidity ^0.6.0;\n\n\n\n\n/**\n * @title SafeERC20\n * @dev Wrappers around ERC20 operations that throw on failure (when the token\n * contract returns false). Tokens that return no value (and instead revert or\n * throw on failure) are also supported, non-reverting calls are assumed to be\n * successful.\n * To use this library you can add a `using SafeERC20 for ERC20;` statement to your contract,\n * which allows you to call the safe operations as `token.safeTransfer(...)`, etc.\n */\nlibrary SafeERC20 {\n    using SafeMath for uint256;\n    using Address for address;\n\n    function safeTransfer(IERC20 token, address to, uint256 value) internal {\n        _callOptionalReturn(token, abi.encodeWithSelector(token.transfer.selector, to, value));\n    }\n\n    function safeTransferFrom(IERC20 token, address from, address to, uint256 value) internal {\n        _callOptionalReturn(token, abi.encodeWithSelector(token.transferFrom.selector, from, to, value));\n    }\n\n    function safeApprove(IERC20 token, address spender, uint256 value) internal {\n        // safeApprove should only be called when setting an initial allowance,\n        // or when resetting it to zero. To increase and decrease it, use\n        // 'safeIncreaseAllowance' and 'safeDecreaseAllowance'\n        // solhint-disable-next-line max-line-length\n        require((value == 0) || (token.allowance(address(this), spender) == 0),\n            \"SafeERC20: approve from non-zero to non-zero allowance\"\n        );\n        _callOptionalReturn(token, abi.encodeWithSelector(token.approve.selector, spender, value));\n    }\n\n    function safeIncreaseAllowance(IERC20 token, address spender, uint256 value) internal {\n        uint256 newAllowance = token.allowance(address(this), spender).add(value);\n        _callOptionalReturn(token, abi.encodeWithSelector(token.approve.selector, spender, newAllowance));\n    }\n\n    function safeDecreaseAllowance(IERC20 token, address spender, uint256 value) internal {\n        uint256 newAllowance = token.allowance(address(this), spender).sub(value, \"SafeERC20: decreased allowance below zero\");\n        _callOptionalReturn(token, abi.encodeWithSelector(token.approve.selector, spender, newAllowance));\n    }\n\n    /**\n     * @dev Imitates a Solidity high-level call (i.e. a regular function call to a contract), relaxing the requirement\n     * on the return value: the return value is optional (but if data is returned, it must not be false).\n     * @param token The token targeted by the call.\n     * @param data The call data (encoded using abi.encode or one of its variants).\n     */\n    function _callOptionalReturn(IERC20 token, bytes memory data) private {\n        // We need to perform a low level call here, to bypass Solidity's return data size checking mechanism, since\n        // we're implementing it ourselves.\n\n        // A Solidity high level call has three parts:\n        //  1. The target address is checked to verify it contains contract code\n        //  2. The call itself is made, and success asserted\n        //  3. The return value is decoded, which in turn checks the size of the returned data.\n        // solhint-disable-next-line max-line-length\n        require(address(token).isContract(), \"SafeERC20: call to non-contract\");\n\n        // solhint-disable-next-line avoid-low-level-calls\n        (bool success, bytes memory returndata) = address(token).call(data);\n        require(success, \"SafeERC20: low-level call failed\");\n\n        if (returndata.length > 0) { // Return data is optional\n            // solhint-disable-next-line max-line-length\n            require(abi.decode(returndata, (bool)), \"SafeERC20: ERC20 operation did not succeed\");\n        }\n    }\n}\n\n// File: @openzeppelin/contracts-ethereum-package/contracts/utils/EnumerableSet.sol\n\npragma solidity ^0.6.0;\n\n/**\n * @dev Library for managing\n * https://en.wikipedia.org/wiki/Set_(abstract_data_type)[sets] of primitive\n * types.\n *\n * Sets have the following properties:\n *\n * - Elements are added, removed, and checked for existence in constant time\n * (O(1)).\n * - Elements are enumerated in O(n). No guarantees are made on the ordering.\n *\n * ```\n * contract Example {\n *     // Add the library methods\n *     using EnumerableSet for EnumerableSet.AddressSet;\n *\n *     // Declare a set state variable\n *     EnumerableSet.AddressSet private mySet;\n * }\n * ```\n *\n * As of v3.0.0, only sets of type `address` (`AddressSet`) and `uint256`\n * (`UintSet`) are supported.\n */\nlibrary EnumerableSet {\n    // To implement this library for multiple types with as little code\n    // repetition as possible, we write it in terms of a generic Set type with\n    // bytes32 values.\n    // The Set implementation uses private functions, and user-facing\n    // implementations (such as AddressSet) are just wrappers around the\n    // underlying Set.\n    // This means that we can only create new EnumerableSets for types that fit\n    // in bytes32.\n\n    struct Set {\n        // Storage of set values\n        bytes32[] _values;\n\n        // Position of the value in the `values` array, plus 1 because index 0\n        // means a value is not in the set.\n        mapping (bytes32 => uint256) _indexes;\n    }\n\n    /**\n     * @dev Add a value to a set. O(1).\n     *\n     * Returns true if the value was added to the set, that is if it was not\n     * already present.\n     */\n    function _add(Set storage set, bytes32 value) private returns (bool) {\n        if (!_contains(set, value)) {\n            set._values.push(value);\n            // The value is stored at length-1, but we add 1 to all indexes\n            // and use 0 as a sentinel value\n            set._indexes[value] = set._values.length;\n            return true;\n        } else {\n            return false;\n        }\n    }\n\n    /**\n     * @dev Removes a value from a set. O(1).\n     *\n     * Returns true if the value was removed from the set, that is if it was\n     * present.\n     */\n    function _remove(Set storage set, bytes32 value) private returns (bool) {\n        // We read and store the value's index to prevent multiple reads from the same storage slot\n        uint256 valueIndex = set._indexes[value];\n\n        if (valueIndex != 0) { // Equivalent to contains(set, value)\n            // To delete an element from the _values array in O(1), we swap the element to delete with the last one in\n            // the array, and then remove the last element (sometimes called as 'swap and pop').\n            // This modifies the order of the array, as noted in {at}.\n\n            uint256 toDeleteIndex = valueIndex - 1;\n            uint256 lastIndex = set._values.length - 1;\n\n            // When the value to delete is the last one, the swap operation is unnecessary. However, since this occurs\n            // so rarely, we still do the swap anyway to avoid the gas cost of adding an 'if' statement.\n\n            bytes32 lastvalue = set._values[lastIndex];\n\n            // Move the last value to the index where the value to delete is\n            set._values[toDeleteIndex] = lastvalue;\n            // Update the index for the moved value\n            set._indexes[lastvalue] = toDeleteIndex + 1; // All indexes are 1-based\n\n            // Delete the slot where the moved value was stored\n            set._values.pop();\n\n            // Delete the index for the deleted slot\n            delete set._indexes[value];\n\n            return true;\n        } else {\n            return false;\n        }\n    }\n\n    /**\n     * @dev Returns true if the value is in the set. O(1).\n     */\n    function _contains(Set storage set, bytes32 value) private view returns (bool) {\n        return set._indexes[value] != 0;\n    }\n\n    /**\n     * @dev Returns the number of values on the set. O(1).\n     */\n    function _length(Set storage set) private view returns (uint256) {\n        return set._values.length;\n    }\n\n   /**\n    * @dev Returns the value stored at position `index` in the set. O(1).\n    *\n    * Note that there are no guarantees on the ordering of values inside the\n    * array, and it may change when more values are added or removed.\n    *\n    * Requirements:\n    *\n    * - `index` must be strictly less than {length}.\n    */\n    function _at(Set storage set, uint256 index) private view returns (bytes32) {\n        require(set._values.length > index, \"EnumerableSet: index out of bounds\");\n        return set._values[index];\n    }\n\n    // AddressSet\n\n    struct AddressSet {\n        Set _inner;\n    }\n\n    /**\n     * @dev Add a value to a set. O(1).\n     *\n     * Returns true if the value was added to the set, that is if it was not\n     * already present.\n     */\n    function add(AddressSet storage set, address value) internal returns (bool) {\n        return _add(set._inner, bytes32(uint256(value)));\n    }\n\n    /**\n     * @dev Removes a value from a set. O(1).\n     *\n     * Returns true if the value was removed from the set, that is if it was\n     * present.\n     */\n    function remove(AddressSet storage set, address value) internal returns (bool) {\n        return _remove(set._inner, bytes32(uint256(value)));\n    }\n\n    /**\n     * @dev Returns true if the value is in the set. O(1).\n     */\n    function contains(AddressSet storage set, address value) internal view returns (bool) {\n        return _contains(set._inner, bytes32(uint256(value)));\n    }\n\n    /**\n     * @dev Returns the number of values in the set. O(1).\n     */\n    function length(AddressSet storage set) internal view returns (uint256) {\n        return _length(set._inner);\n    }\n\n   /**\n    * @dev Returns the value stored at position `index` in the set. O(1).\n    *\n    * Note that there are no guarantees on the ordering of values inside the\n    * array, and it may change when more values are added or removed.\n    *\n    * Requirements:\n    *\n    * - `index` must be strictly less than {length}.\n    */\n    function at(AddressSet storage set, uint256 index) internal view returns (address) {\n        return address(uint256(_at(set._inner, index)));\n    }\n\n\n    // UintSet\n\n    struct UintSet {\n        Set _inner;\n    }\n\n    /**\n     * @dev Add a value to a set. O(1).\n     *\n     * Returns true if the value was added to the set, that is if it was not\n     * already present.\n     */\n    function add(UintSet storage set, uint256 value) internal returns (bool) {\n        return _add(set._inner, bytes32(value));\n    }\n\n    /**\n     * @dev Removes a value from a set. O(1).\n     *\n     * Returns true if the value was removed from the set, that is if it was\n     * present.\n     */\n    function remove(UintSet storage set, uint256 value) internal returns (bool) {\n        return _remove(set._inner, bytes32(value));\n    }\n\n    /**\n     * @dev Returns true if the value is in the set. O(1).\n     */\n    function contains(UintSet storage set, uint256 value) internal view returns (bool) {\n        return _contains(set._inner, bytes32(value));\n    }\n\n    /**\n     * @dev Returns the number of values on the set. O(1).\n     */\n    function length(UintSet storage set) internal view returns (uint256) {\n        return _length(set._inner);\n    }\n\n   /**\n    * @dev Returns the value stored at position `index` in the set. O(1).\n    *\n    * Note that there are no guarantees on the ordering of values inside the\n    * array, and it may change when more values are added or removed.\n    *\n    * Requirements:\n    *\n    * - `index` must be strictly less than {length}.\n    */\n    function at(UintSet storage set, uint256 index) internal view returns (uint256) {\n        return uint256(_at(set._inner, index));\n    }\n}\n\n// File: @openzeppelin/contracts-ethereum-package/contracts/Initializable.sol\n\npragma solidity >=0.4.24 <0.7.0;\n\n\n/**\n * @title Initializable\n *\n * @dev Helper contract to support initializer functions. To use it, replace\n * the constructor with a function that has the `initializer` modifier.\n * WARNING: Unlike constructors, initializer functions must be manually\n * invoked. This applies both to deploying an Initializable contract, as well\n * as extending an Initializable contract via inheritance.\n * WARNING: When used with inheritance, manual care must be taken to not invoke\n * a parent initializer twice, or ensure that all initializers are idempotent,\n * because this is not dealt with automatically as with constructors.\n */\ncontract Initializable {\n\n  /**\n   * @dev Indicates that the contract has been initialized.\n   */\n  bool private initialized;\n\n  /**\n   * @dev Indicates that the contract is in the process of being initialized.\n   */\n  bool private initializing;\n\n  /**\n   * @dev Modifier to use in the initializer function of a contract.\n   */\n  modifier initializer() {\n    require(initializing || isConstructor() || !initialized, \"Contract instance has already been initialized\");\n\n    bool isTopLevelCall = !initializing;\n    if (isTopLevelCall) {\n      initializing = true;\n      initialized = true;\n    }\n\n    _;\n\n    if (isTopLevelCall) {\n      initializing = false;\n    }\n  }\n\n  /// @dev Returns true if and only if the function is running in the constructor\n  function isConstructor() private view returns (bool) {\n    // extcodesize checks the size of the code stored in an address, and\n    // address returns the current address. Since the code is still not\n    // deployed when running a constructor, any checks on its code size will\n    // yield zero, making it an effective way to detect if a contract is\n    // under construction or not.\n    address self = address(this);\n    uint256 cs;\n    assembly { cs := extcodesize(self) }\n    return cs == 0;\n  }\n\n  // Reserved storage space to allow for layout changes in the future.\n  uint256[50] private ______gap;\n}\n\n// File: @openzeppelin/contracts-ethereum-package/contracts/GSN/Context.sol\n\npragma solidity ^0.6.0;\n\n\n/*\n * @dev Provides information about the current execution context, including the\n * sender of the transaction and its data. While these are generally available\n * via msg.sender and msg.data, they should not be accessed in such a direct\n * manner, since when dealing with GSN meta-transactions the account sending and\n * paying for execution may not be the actual sender (as far as an application\n * is concerned).\n *\n * This contract is only required for intermediate, library-like contracts.\n */\ncontract ContextUpgradeSafe is Initializable {\n    // Empty internal constructor, to prevent people from mistakenly deploying\n    // an instance of this contract, which should be used via inheritance.\n\n    function __Context_init() internal initializer {\n        __Context_init_unchained();\n    }\n\n    function __Context_init_unchained() internal initializer {\n\n\n    }\n\n\n    function _msgSender() internal view virtual returns (address payable) {\n        return msg.sender;\n    }\n\n    function _msgData() internal view virtual returns (bytes memory) {\n        this; // silence state mutability warning without generating bytecode - see https://github.com/ethereum/solidity/issues/2691\n        return msg.data;\n    }\n\n    uint256[50] private __gap;\n}\n\n// File: @openzeppelin/contracts-ethereum-package/contracts/access/Ownable.sol\n\npragma solidity ^0.6.0;\n\n\n/**\n * @dev Contract module which provides a basic access control mechanism, where\n * there is an account (an owner) that can be granted exclusive access to\n * specific functions.\n *\n * By default, the owner account will be the one that deploys the contract. This\n * can later be changed with {transferOwnership}.\n *\n * This module is used through inheritance. It will make available the modifier\n * `onlyOwner`, which can be applied to your functions to restrict their use to\n * the owner.\n */\ncontract OwnableUpgradeSafe is Initializable, ContextUpgradeSafe {\n    address private _owner;\n\n    event OwnershipTransferred(address indexed previousOwner, address indexed newOwner);\n\n    /**\n     * @dev Initializes the contract setting the deployer as the initial owner.\n     */\n\n    function __Ownable_init() internal initializer {\n        __Context_init_unchained();\n        __Ownable_init_unchained();\n    }\n\n    function __Ownable_init_unchained() internal initializer {\n\n\n        address msgSender = _msgSender();\n        _owner = msgSender;\n        emit OwnershipTransferred(address(0), msgSender);\n\n    }\n\n\n    /**\n     * @dev Returns the address of the current owner.\n     */\n    function owner() public view returns (address) {\n        return _owner;\n    }\n\n    /**\n     * @dev Throws if called by any account other than the owner.\n     */\n    modifier onlyOwner() {\n        require(_owner == _msgSender(), \"Ownable: caller is not the owner\");\n        _;\n    }\n\n    /**\n     * @dev Leaves the contract without owner. It will not be possible to call\n     * `onlyOwner` functions anymore. Can only be called by the current owner.\n     *\n     * NOTE: Renouncing ownership will leave the contract without an owner,\n     * thereby removing any functionality that is only available to the owner.\n     */\n    function renounceOwnership() public virtual onlyOwner {\n        emit OwnershipTransferred(_owner, address(0));\n        _owner = address(0);\n    }\n\n    /**\n     * @dev Transfers ownership of the contract to a new account (`newOwner`).\n     * Can only be called by the current owner.\n     */\n    function transferOwnership(address newOwner) public virtual onlyOwner {\n        require(newOwner != address(0), \"Ownable: new owner is the zero address\");\n        emit OwnershipTransferred(_owner, newOwner);\n        _owner = newOwner;\n    }\n\n    uint256[49] private __gap;\n}\n\n// File: contracts/INBUNIERC20.sol\n\n// SPDX-License-Identifier: MIT\n\npragma solidity ^0.6.0;\n\n/**\n * @dev Interface of the ERC20 standard as defined in the EIP.\n */\ninterface INBUNIERC20 {\n    /**\n     * @dev Returns the amount of tokens in existence.\n     */\n    function totalSupply() external view returns (uint256);\n\n    /**\n     * @dev Returns the amount of tokens owned by `account`.\n     */\n    function balanceOf(address account) external view returns (uint256);\n\n    /**\n     * @dev Moves `amount` tokens from the caller's account to `recipient`.\n     *\n     * Returns a boolean value indicating whether the operation succeeded.\n     *\n     * Emits a {Transfer} event.\n     */\n    function transfer(address recipient, uint256 amount) external returns (bool);\n\n    /**\n     * @dev Returns the remaining number of tokens that `spender` will be\n     * allowed to spend on behalf of `owner` through {transferFrom}. This is\n     * zero by default.\n     *\n     * This value changes when {approve} or {transferFrom} are called.\n     */\n    function allowance(address owner, address spender) external view returns (uint256);\n\n    /**\n     * @dev Sets `amount` as the allowance of `spender` over the caller's tokens.\n     *\n     * Returns a boolean value indicating whether the operation succeeded.\n     *\n     * IMPORTANT: Beware that changing an allowance with this method brings the risk\n     * that someone may use both the old and the new allowance by unfortunate\n     * transaction ordering. One possible solution to mitigate this race\n     * condition is to first reduce the spender's allowance to 0 and set the\n     * desired value afterwards:\n     * https://github.com/ethereum/EIPs/issues/20#issuecomment-263524729\n     *\n     * Emits an {Approval} event.\n     */\n    function approve(address spender, uint256 amount) external returns (bool);\n\n    /**\n     * @dev Moves `amount` tokens from `sender` to `recipient` using the\n     * allowance mechanism. `amount` is then deducted from the caller's\n     * allowance.\n     *\n     * Returns a boolean value indicating whether the operation succeeded.\n     *\n     * Emits a {Transfer} event.\n     */\n    function transferFrom(address sender, address recipient, uint256 amount) external returns (bool);\n\n    /**\n     * @dev Emitted when `value` tokens are moved from one account (`from`) to\n     * another (`to`).\n     *\n     * Note that `value` may be zero.\n     */\n    event Transfer(address indexed from, address indexed to, uint256 value);\n\n    /**\n     * @dev Emitted when the allowance of a `spender` for an `owner` is set by\n     * a call to {approve}. `value` is the new allowance.\n     */\n    event Approval(address indexed owner, address indexed spender, uint256 value);\n\n\n    event Log(string log);\n\n}\n\n// File: contracts/CoreVault.sol\n\npragma solidity 0.6.12;\n\n\n\n\n\n\n\n// Core Vault distributes fees equally amongst staked pools\n// Have fun reading it. Hopefully it's bug-free. God bless.\ncontract CoreVault is OwnableUpgradeSafe {\n    using SafeMath for uint256;\n    using SafeERC20 for IERC20;\n\n    // Info of each user.\n    struct UserInfo {\n        uint256 amount; // How many  tokens the user has provided.\n        uint256 rewardDebt; // Reward debt. See explanation below.\n        //\n        // We do some fancy math here. Basically, any point in time, the amount of COREs\n        // entitled to a user but is pending to be distributed is:\n        //\n        //   pending reward = (user.amount * pool.accCorePerShare) - user.rewardDebt\n        //\n        // Whenever a user deposits or withdraws  tokens to a pool. Here's what happens:\n        //   1. The pool's `accCorePerShare` (and `lastRewardBlock`) gets updated.\n        //   2. User receives the pending reward sent to his/her address.\n        //   3. User's `amount` gets updated.\n        //   4. User's `rewardDebt` gets updated.\n    }\n\n    // Info of each pool.\n    struct PoolInfo {\n        IERC20 token; // Address of  token contract.\n        uint256 allocPoint; // How many allocation points assigned to this pool. COREs to distribute per block.\n        uint256 accCorePerShare; // Accumulated COREs per share, times 1e12. See below.\n        bool withdrawable; // Is this pool withdrawable?\n        mapping(address => mapping(address => uint256)) allowance;\n    }\n\n    // The CORE TOKEN!\n    INBUNIERC20 public core;\n    // Dev address.\n    address public devaddr;\n\n    // Info of each pool.\n    PoolInfo[] public poolInfo;\n    // Info of each user that stakes  tokens.\n    mapping(uint256 => mapping(address => UserInfo)) public userInfo;\n    // Total allocation poitns. Must be the sum of all allocation points in all pools.\n    uint256 public totalAllocPoint;\n\n    //// pending rewards awaiting anyone to massUpdate\n    uint256 public pendingRewards;\n\n    uint256 public contractStartBlock;\n    uint256 public epochCalculationStartBlock;\n    uint256 public cumulativeRewardsSinceStart;\n    uint256 public rewardsInThisEpoch;\n    uint256 public epoch;\n\n    // Returns fees generated since start of this contract\n    function averageFeesPerBlockSinceStart()\n        external\n        view\n        returns (uint256 averagePerBlock)\n    {\n        averagePerBlock = cumulativeRewardsSinceStart\n            .add(rewardsInThisEpoch)\n            .div(block.number.sub(contractStartBlock));\n    }\n\n    // Returns averge fees in this epoch\n    function averageFeesPerBlockEpoch()\n        external\n        view\n        returns (uint256 averagePerBlock)\n    {\n        averagePerBlock = rewardsInThisEpoch.div(\n            block.number.sub(epochCalculationStartBlock)\n        );\n    }\n\n    // For easy graphing historical epoch rewards\n    mapping(uint256 => uint256) public epochRewards;\n\n    //Starts a new calculation epoch\n    // Because averge since start will not be accurate\n    function startNewEpoch() public {\n        require(\n            epochCalculationStartBlock + 50000 < block.number,\n            \"New epoch not ready yet\"\n        ); // About a week\n        epochRewards[epoch] = rewardsInThisEpoch;\n        cumulativeRewardsSinceStart = cumulativeRewardsSinceStart.add(\n            rewardsInThisEpoch\n        );\n        rewardsInThisEpoch = 0;\n        epochCalculationStartBlock = block.number;\n        ++epoch;\n    }\n\n    event Deposit(address indexed user, uint256 indexed pid, uint256 amount);\n    event Withdraw(address indexed user, uint256 indexed pid, uint256 amount);\n    event EmergencyWithdraw(\n        address indexed user,\n        uint256 indexed pid,\n        uint256 amount\n    );\n    event Approval(\n        address indexed owner,\n        address indexed spender,\n        uint256 _pid,\n        uint256 value\n    );\n\n    function initialize(\n        INBUNIERC20 _core,\n        address _devaddr,\n        address superAdmin\n    ) public initializer {\n        OwnableUpgradeSafe.__Ownable_init();\n        DEV_FEE = 724;\n        core = _core;\n        devaddr = _devaddr;\n        contractStartBlock = block.number;\n        _superAdmin = superAdmin;\n    }\n\n    function poolLength() external view returns (uint256) {\n        return poolInfo.length;\n    }\n\n    // Add a new token pool. Can only be called by the owner.\n    // Note contract owner is meant to be a governance contract allowing CORE governance consensus\n    function add(\n        uint256 _allocPoint,\n        IERC20 _token,\n        bool _withUpdate,\n        bool _withdrawable\n    ) public onlyOwner {\n        if (_withUpdate) {\n            massUpdatePools();\n        }\n\n        uint256 length = poolInfo.length;\n        for (uint256 pid = 0; pid < length; ++pid) {\n            require(poolInfo[pid].token != _token, \"Error pool already added\");\n        }\n\n        totalAllocPoint = totalAllocPoint.add(_allocPoint);\n\n        poolInfo.push(\n            PoolInfo({\n                token: _token,\n                allocPoint: _allocPoint,\n                accCorePerShare: 0,\n                withdrawable: _withdrawable\n            })\n        );\n    }\n\n    // Update the given pool's COREs allocation point. Can only be called by the owner.\n    // Note contract owner is meant to be a governance contract allowing CORE governance consensus\n\n    function set(\n        uint256 _pid,\n        uint256 _allocPoint,\n        bool _withUpdate\n    ) public onlyOwner {\n        if (_withUpdate) {\n            massUpdatePools();\n        }\n\n        totalAllocPoint = totalAllocPoint.sub(poolInfo[_pid].allocPoint).add(\n            _allocPoint\n        );\n        poolInfo[_pid].allocPoint = _allocPoint;\n    }\n\n    // Update the given pool's ability to withdraw tokens\n    // Note contract owner is meant to be a governance contract allowing CORE governance consensus\n    function setPoolWithdrawable(uint256 _pid, bool _withdrawable)\n        public\n        onlyOwner\n    {\n        poolInfo[_pid].withdrawable = _withdrawable;\n    }\n\n    // Sets the dev fee for this contract\n    // defaults at 7.24%\n    // Note contract owner is meant to be a governance contract allowing CORE governance consensus\n    uint16 DEV_FEE;\n\n    function setDevFee(uint16 _DEV_FEE) public onlyOwner {\n        require(_DEV_FEE <= 1000, \"Dev fee clamped at 10%\");\n        DEV_FEE = _DEV_FEE;\n    }\n\n    uint256 pending_DEV_rewards;\n\n    function getPendingDevFeeRewards() public view returns (uint256) {\n        return pending_DEV_rewards;\n    }\n\n    // View function to see pending COREs on frontend.\n    function pendingCore(uint256 _pid, address _user)\n        external\n        view\n        returns (uint256)\n    {\n        PoolInfo storage pool = poolInfo[_pid];\n        UserInfo storage user = userInfo[_pid][_user];\n        uint256 accCorePerShare = pool.accCorePerShare;\n\n        return user.amount.mul(accCorePerShare).div(1e12).sub(user.rewardDebt);\n    }\n\n    // Update reward vairables for all pools. Be careful of gas spending!\n    function massUpdatePools() public {\n        uint256 length = poolInfo.length;\n        uint256 allRewards;\n        for (uint256 pid = 0; pid < length; ++pid) {\n            allRewards = allRewards.add(updatePool(pid));\n        }\n\n        pendingRewards = pendingRewards.sub(allRewards);\n    }\n\n    // ----\n    // Function that adds pending rewards, called by the CORE token.\n    // ----\n    uint256 private coreBalance;\n\n    function addPendingRewards(uint256 _) public {\n        uint256 newRewards = core.balanceOf(address(this)).sub(coreBalance);\n\n        if (newRewards > 0) {\n            coreBalance = core.balanceOf(address(this)); // If there is no change the balance didn't change\n            pendingRewards = pendingRewards.add(newRewards);\n            rewardsInThisEpoch = rewardsInThisEpoch.add(newRewards);\n        }\n    }\n\n    // Update reward variables of the given pool to be up-to-date.\n    function updatePool(uint256 _pid)\n        internal\n        returns (uint256 coreRewardWhole)\n    {\n        PoolInfo storage pool = poolInfo[_pid];\n\n        uint256 tokenSupply = pool.token.balanceOf(address(this));\n        if (tokenSupply == 0) {\n            // avoids division by 0 errors\n            return 0;\n        }\n        coreRewardWhole = pendingRewards // Multiplies pending rewards by allocation point of this pool and then total allocation\n            .mul(pool.allocPoint) // getting the percent of total pending rewards this pool should get\n            .div(totalAllocPoint); // we can do this because pools are only mass updated\n        uint256 coreRewardFee = coreRewardWhole.mul(DEV_FEE).div(10000);\n        uint256 coreRewardToDistribute = coreRewardWhole.sub(coreRewardFee);\n\n        pending_DEV_rewards = pending_DEV_rewards.add(coreRewardFee);\n\n        pool.accCorePerShare = pool.accCorePerShare.add(\n            coreRewardToDistribute.mul(1e12).div(tokenSupply)\n        );\n    }\n\n    // Deposit  tokens to CoreVault for CORE allocation.\n    function deposit(uint256 _pid, uint256 _amount) public {\n        PoolInfo storage pool = poolInfo[_pid];\n        UserInfo storage user = userInfo[_pid][msg.sender];\n\n        massUpdatePools();\n\n        // Transfer pending tokens\n        // to user\n        updateAndPayOutPending(_pid, msg.sender);\n\n        //Transfer in the amounts from user\n        // save gas\n        if (_amount > 0) {\n            pool.token.safeTransferFrom(\n                address(msg.sender),\n                address(this),\n                _amount\n            );\n            user.amount = user.amount.add(_amount);\n        }\n\n        user.rewardDebt = user.amount.mul(pool.accCorePerShare).div(1e12);\n        emit Deposit(msg.sender, _pid, _amount);\n    }\n\n    // Test coverage\n    // [x] Does user get the deposited amounts?\n    // [x] Does user that its deposited for update correcty?\n    // [x] Does the depositor get their tokens decreased\n    function depositFor(\n        address depositFor,\n        uint256 _pid,\n        uint256 _amount\n    ) public {\n        // requires no allowances\n        PoolInfo storage pool = poolInfo[_pid];\n        UserInfo storage user = userInfo[_pid][depositFor];\n\n        massUpdatePools();\n\n        // Transfer pending tokens\n        // to user\n        updateAndPayOutPending(_pid, depositFor); // Update the balances of person that amount is being deposited for\n\n        if (_amount > 0) {\n            pool.token.safeTransferFrom(\n                address(msg.sender),\n                address(this),\n                _amount\n            );\n            user.amount = user.amount.add(_amount); // This is depositedFor address\n        }\n\n        user.rewardDebt = user.amount.mul(pool.accCorePerShare).div(1e12); /// This is deposited for address\n        emit Deposit(depositFor, _pid, _amount);\n    }\n\n    // Test coverage\n    // [x] Does allowance update correctly?\n    function setAllowanceForPoolToken(\n        address spender,\n        uint256 _pid,\n        uint256 value\n    ) public {\n        PoolInfo storage pool = poolInfo[_pid];\n        pool.allowance[msg.sender][spender] = value;\n        emit Approval(msg.sender, spender, _pid, value);\n    }\n\n    // Test coverage\n    // [x] Does allowance decrease?\n    // [x] Do oyu need allowance\n    // [x] Withdraws to correct address\n    function withdrawFrom(\n        address owner,\n        uint256 _pid,\n        uint256 _amount\n    ) public {\n        PoolInfo storage pool = poolInfo[_pid];\n        require(\n            pool.allowance[owner][msg.sender] >= _amount,\n            \"withdraw: insufficient allowance\"\n        );\n        pool.allowance[owner][msg.sender] = pool.allowance[owner][msg.sender]\n            .sub(_amount);\n        _withdraw(_pid, _amount, owner, msg.sender);\n    }\n\n    // Withdraw  tokens from CoreVault.\n    function withdraw(uint256 _pid, uint256 _amount) public {\n        _withdraw(_pid, _amount, msg.sender, msg.sender);\n    }\n\n    // Low level withdraw function\n    function _withdraw(\n        uint256 _pid,\n        uint256 _amount,\n        address from,\n        address to\n    ) internal {\n        PoolInfo storage pool = poolInfo[_pid];\n        require(pool.withdrawable, \"Withdrawing from this pool is disabled\");\n        UserInfo storage user = userInfo[_pid][from];\n        require(user.amount >= _amount, \"withdraw: not good\");\n\n        massUpdatePools();\n        updateAndPayOutPending(_pid, from); // Update balances of from this is not withdrawal but claiming CORE farmed\n\n        if (_amount > 0) {\n            user.amount = user.amount.sub(_amount);\n            pool.token.safeTransfer(address(to), _amount);\n        }\n        user.rewardDebt = user.amount.mul(pool.accCorePerShare).div(1e12);\n\n        emit Withdraw(to, _pid, _amount);\n    }\n\n    function updateAndPayOutPending(uint256 _pid, address from) internal {\n        UserInfo storage user = userInfo[_pid][from];\n\n        if (user.amount == 0) return;\n        PoolInfo storage pool = poolInfo[_pid];\n\n        uint256 pending = user.amount.mul(pool.accCorePerShare).div(1e12).sub(\n            user.rewardDebt\n        );\n\n        if (pending > 0) {\n            safeCoreTransfer(from, pending);\n        }\n    }\n\n    // function that lets owner/governance contract\n    // approve allowance for any token inside this contract\n    // This means all future UNI like airdrops are covered\n    // And at the same time allows us to give allowance to strategy contracts.\n    // Upcoming cYFI etc vaults strategy contracts will  se this function to manage and farm yield on value locked\n    function setStrategyContractOrDistributionContractAllowance(\n        address tokenAddress,\n        uint256 _amount,\n        address contractAddress\n    ) public onlySuperAdmin {\n        require(\n            isContract(contractAddress),\n            \"Recipent is not a smart contract, BAD\"\n        );\n        require(\n            block.number > contractStartBlock.add(95_000),\n            \"Governance setup grace period not over\"\n        );\n        IERC20(tokenAddress).approve(contractAddress, _amount);\n    }\n\n    function isContract(address addr) public returns (bool) {\n        uint256 size;\n        assembly {\n            size := extcodesize(addr)\n        }\n        return size > 0;\n    }\n\n    function emergencyWithdraw(uint256 _pid) public {\n        PoolInfo storage pool = poolInfo[_pid];\n        require(pool.withdrawable, \"Withdrawing from this pool is disabled\");\n        UserInfo storage user = userInfo[_pid][msg.sender];\n        pool.token.safeTransfer(address(msg.sender), user.amount);\n        emit EmergencyWithdraw(msg.sender, _pid, user.amount);\n        user.amount = 0;\n        user.rewardDebt = 0;\n    }\n\n    function safeCoreTransfer(address _to, uint256 _amount) internal {\n        if (_amount == 0) return;\n\n        uint256 coreBal = core.balanceOf(address(this));\n        if (_amount > coreBal) {\n            core.transfer(_to, coreBal);\n            coreBalance = core.balanceOf(address(this));\n        } else {\n            core.transfer(_to, _amount);\n            coreBalance = core.balanceOf(address(this));\n        }\n        transferDevFee();\n    }\n\n    function transferDevFee() public {\n        if (pending_DEV_rewards == 0) return;\n        uint256 coreBal = core.balanceOf(address(this));\n        if (pending_DEV_rewards > coreBal) {\n            core.transfer(devaddr, coreBal);\n            coreBalance = core.balanceOf(address(this));\n        } else {\n            core.transfer(devaddr, pending_DEV_rewards);\n            coreBalance = core.balanceOf(address(this));\n        }\n        pending_DEV_rewards = 0;\n    }\n\n    function setDevFeeReciever(address _devaddr) public onlyOwner {\n        devaddr = _devaddr;\n    }\n\n    address private _superAdmin;\n\n    event SuperAdminTransfered(\n        address indexed previousOwner,\n        address indexed newOwner\n    );\n\n    function superAdmin() public view returns (address) {\n        return _superAdmin;\n    }\n\n    modifier onlySuperAdmin() {\n        require(\n            _superAdmin == _msgSender(),\n            \"Super admin : caller is not super admin.\"\n        );\n        _;\n    }\n\n    function burnSuperAdmin() public virtual onlySuperAdmin {\n        emit SuperAdminTransfered(_superAdmin, address(0));\n        _superAdmin = address(0);\n    }\n\n    function newSuperAdmin(address newOwner) public virtual onlySuperAdmin {\n        require(\n            newOwner != address(0),\n            \"Ownable: new owner is the zero address\"\n        );\n        emit SuperAdminTransfered(_superAdmin, newOwner);\n        _superAdmin = newOwner;\n    }\n}\n",
  "sourcePath": "contracts/CoreVault.sol",
  "abi": [
    {
      "anonymous": false,
      "inputs": [
        {
          "indexed": true,
          "internalType": "address",
          "name": "owner",
          "type": "address"
        },
        {
          "indexed": true,
          "internalType": "address",
          "name": "spender",
          "type": "address"
        },
        {
          "indexed": false,
          "internalType": "uint256",
          "name": "_pid",
          "type": "uint256"
        },
        {
          "indexed": false,
          "internalType": "uint256",
          "name": "value",
          "type": "uint256"
        }
      ],
      "name": "Approval",
      "type": "event"
    },
    {
      "anonymous": false,
      "inputs": [
        {
          "indexed": true,
          "internalType": "address",
          "name": "user",
          "type": "address"
        },
        {
          "indexed": true,
          "internalType": "uint256",
          "name": "pid",
          "type": "uint256"
        },
        {
          "indexed": false,
          "internalType": "uint256",
          "name": "amount",
          "type": "uint256"
        }
      ],
      "name": "Deposit",
      "type": "event"
    },
    {
      "anonymous": false,
      "inputs": [
        {
          "indexed": true,
          "internalType": "address",
          "name": "user",
          "type": "address"
        },
        {
          "indexed": true,
          "internalType": "uint256",
          "name": "pid",
          "type": "uint256"
        },
        {
          "indexed": false,
          "internalType": "uint256",
          "name": "amount",
          "type": "uint256"
        }
      ],
      "name": "EmergencyWithdraw",
      "type": "event"
    },
    {
      "anonymous": false,
      "inputs": [
        {
          "indexed": true,
          "internalType": "address",
          "name": "previousOwner",
          "type": "address"
        },
        {
          "indexed": true,
          "internalType": "address",
          "name": "newOwner",
          "type": "address"
        }
      ],
      "name": "OwnershipTransferred",
      "type": "event"
    },
    {
      "anonymous": false,
      "inputs": [
        {
          "indexed": true,
          "internalType": "address",
          "name": "previousOwner",
          "type": "address"
        },
        {
          "indexed": true,
          "internalType": "address",
          "name": "newOwner",
          "type": "address"
        }
      ],
      "name": "SuperAdminTransfered",
      "type": "event"
    },
    {
      "anonymous": false,
      "inputs": [
        {
          "indexed": true,
          "internalType": "address",
          "name": "user",
          "type": "address"
        },
        {
          "indexed": true,
          "internalType": "uint256",
          "name": "pid",
          "type": "uint256"
        },
        {
          "indexed": false,
          "internalType": "uint256",
          "name": "amount",
          "type": "uint256"
        }
      ],
      "name": "Withdraw",
      "type": "event"
    },
    {
      "inputs": [
        {
          "internalType": "uint256",
          "name": "_allocPoint",
          "type": "uint256"
        },
        {
          "internalType": "contract IERC20",
          "name": "_token",
          "type": "address"
        },
        {
          "internalType": "bool",
          "name": "_withUpdate",
          "type": "bool"
        },
        {
          "internalType": "bool",
          "name": "_withdrawable",
          "type": "bool"
        }
      ],
      "name": "add",
      "outputs": [],
      "stateMutability": "nonpayable",
      "type": "function"
    },
    {
      "inputs": [
        {
          "internalType": "uint256",
          "name": "_",
          "type": "uint256"
        }
      ],
      "name": "addPendingRewards",
      "outputs": [],
      "stateMutability": "nonpayable",
      "type": "function"
    },
    {
      "inputs": [],
      "name": "averageFeesPerBlockEpoch",
      "outputs": [
        {
          "internalType": "uint256",
          "name": "averagePerBlock",
          "type": "uint256"
        }
      ],
      "stateMutability": "view",
      "type": "function"
    },
    {
      "inputs": [],
      "name": "averageFeesPerBlockSinceStart",
      "outputs": [
        {
          "internalType": "uint256",
          "name": "averagePerBlock",
          "type": "uint256"
        }
      ],
      "stateMutability": "view",
      "type": "function"
    },
    {
      "inputs": [],
      "name": "burnSuperAdmin",
      "outputs": [],
      "stateMutability": "nonpayable",
      "type": "function"
    },
    {
      "inputs": [],
      "name": "contractStartBlock",
      "outputs": [
        {
          "internalType": "uint256",
          "name": "",
          "type": "uint256"
        }
      ],
      "stateMutability": "view",
      "type": "function"
    },
    {
      "inputs": [],
      "name": "core",
      "outputs": [
        {
          "internalType": "contract INBUNIERC20",
          "name": "",
          "type": "address"
        }
      ],
      "stateMutability": "view",
      "type": "function"
    },
    {
      "inputs": [],
      "name": "cumulativeRewardsSinceStart",
      "outputs": [
        {
          "internalType": "uint256",
          "name": "",
          "type": "uint256"
        }
      ],
      "stateMutability": "view",
      "type": "function"
    },
    {
      "inputs": [
        {
          "internalType": "uint256",
          "name": "_pid",
          "type": "uint256"
        },
        {
          "internalType": "uint256",
          "name": "_amount",
          "type": "uint256"
        }
      ],
      "name": "deposit",
      "outputs": [],
      "stateMutability": "nonpayable",
      "type": "function"
    },
    {
      "inputs": [
        {
          "internalType": "address",
          "name": "depositFor",
          "type": "address"
        },
        {
          "internalType": "uint256",
          "name": "_pid",
          "type": "uint256"
        },
        {
          "internalType": "uint256",
          "name": "_amount",
          "type": "uint256"
        }
      ],
      "name": "depositFor",
      "outputs": [],
      "stateMutability": "nonpayable",
      "type": "function"
    },
    {
      "inputs": [],
      "name": "devaddr",
      "outputs": [
        {
          "internalType": "address",
          "name": "",
          "type": "address"
        }
      ],
      "stateMutability": "view",
      "type": "function"
    },
    {
      "inputs": [
        {
          "internalType": "uint256",
          "name": "_pid",
          "type": "uint256"
        }
      ],
      "name": "emergencyWithdraw",
      "outputs": [],
      "stateMutability": "nonpayable",
      "type": "function"
    },
    {
      "inputs": [],
      "name": "epoch",
      "outputs": [
        {
          "internalType": "uint256",
          "name": "",
          "type": "uint256"
        }
      ],
      "stateMutability": "view",
      "type": "function"
    },
    {
      "inputs": [],
      "name": "epochCalculationStartBlock",
      "outputs": [
        {
          "internalType": "uint256",
          "name": "",
          "type": "uint256"
        }
      ],
      "stateMutability": "view",
      "type": "function"
    },
    {
      "inputs": [
        {
          "internalType": "uint256",
          "name": "",
          "type": "uint256"
        }
      ],
      "name": "epochRewards",
      "outputs": [
        {
          "internalType": "uint256",
          "name": "",
          "type": "uint256"
        }
      ],
      "stateMutability": "view",
      "type": "function"
    },
    {
      "inputs": [],
      "name": "getPendingDevFeeRewards",
      "outputs": [
        {
          "internalType": "uint256",
          "name": "",
          "type": "uint256"
        }
      ],
      "stateMutability": "view",
      "type": "function"
    },
    {
      "inputs": [
        {
          "internalType": "contract INBUNIERC20",
          "name": "_core",
          "type": "address"
        },
        {
          "internalType": "address",
          "name": "_devaddr",
          "type": "address"
        },
        {
          "internalType": "address",
          "name": "superAdmin",
          "type": "address"
        }
      ],
      "name": "initialize",
      "outputs": [],
      "stateMutability": "nonpayable",
      "type": "function"
    },
    {
      "inputs": [
        {
          "internalType": "address",
          "name": "addr",
          "type": "address"
        }
      ],
      "name": "isContract",
      "outputs": [
        {
          "internalType": "bool",
          "name": "",
          "type": "bool"
        }
      ],
      "stateMutability": "nonpayable",
      "type": "function"
    },
    {
      "inputs": [],
      "name": "massUpdatePools",
      "outputs": [],
      "stateMutability": "nonpayable",
      "type": "function"
    },
    {
      "inputs": [
        {
          "internalType": "address",
          "name": "newOwner",
          "type": "address"
        }
      ],
      "name": "newSuperAdmin",
      "outputs": [],
      "stateMutability": "nonpayable",
      "type": "function"
    },
    {
      "inputs": [],
      "name": "owner",
      "outputs": [
        {
          "internalType": "address",
          "name": "",
          "type": "address"
        }
      ],
      "stateMutability": "view",
      "type": "function"
    },
    {
      "inputs": [
        {
          "internalType": "uint256",
          "name": "_pid",
          "type": "uint256"
        },
        {
          "internalType": "address",
          "name": "_user",
          "type": "address"
        }
      ],
      "name": "pendingCore",
      "outputs": [
        {
          "internalType": "uint256",
          "name": "",
          "type": "uint256"
        }
      ],
      "stateMutability": "view",
      "type": "function"
    },
    {
      "inputs": [],
      "name": "pendingRewards",
      "outputs": [
        {
          "internalType": "uint256",
          "name": "",
          "type": "uint256"
        }
      ],
      "stateMutability": "view",
      "type": "function"
    },
    {
      "inputs": [
        {
          "internalType": "uint256",
          "name": "",
          "type": "uint256"
        }
      ],
      "name": "poolInfo",
      "outputs": [
        {
          "internalType": "contract IERC20",
          "name": "token",
          "type": "address"
        },
        {
          "internalType": "uint256",
          "name": "allocPoint",
          "type": "uint256"
        },
        {
          "internalType": "uint256",
          "name": "accCorePerShare",
          "type": "uint256"
        },
        {
          "internalType": "bool",
          "name": "withdrawable",
          "type": "bool"
        }
      ],
      "stateMutability": "view",
      "type": "function"
    },
    {
      "inputs": [],
      "name": "poolLength",
      "outputs": [
        {
          "internalType": "uint256",
          "name": "",
          "type": "uint256"
        }
      ],
      "stateMutability": "view",
      "type": "function"
    },
    {
      "inputs": [],
      "name": "renounceOwnership",
      "outputs": [],
      "stateMutability": "nonpayable",
      "type": "function"
    },
    {
      "inputs": [],
      "name": "rewardsInThisEpoch",
      "outputs": [
        {
          "internalType": "uint256",
          "name": "",
          "type": "uint256"
        }
      ],
      "stateMutability": "view",
      "type": "function"
    },
    {
      "inputs": [
        {
          "internalType": "uint256",
          "name": "_pid",
          "type": "uint256"
        },
        {
          "internalType": "uint256",
          "name": "_allocPoint",
          "type": "uint256"
        },
        {
          "internalType": "bool",
          "name": "_withUpdate",
          "type": "bool"
        }
      ],
      "name": "set",
      "outputs": [],
      "stateMutability": "nonpayable",
      "type": "function"
    },
    {
      "inputs": [
        {
          "internalType": "address",
          "name": "spender",
          "type": "address"
        },
        {
          "internalType": "uint256",
          "name": "_pid",
          "type": "uint256"
        },
        {
          "internalType": "uint256",
          "name": "value",
          "type": "uint256"
        }
      ],
      "name": "setAllowanceForPoolToken",
      "outputs": [],
      "stateMutability": "nonpayable",
      "type": "function"
    },
    {
      "inputs": [
        {
          "internalType": "uint16",
          "name": "_DEV_FEE",
          "type": "uint16"
        }
      ],
      "name": "setDevFee",
      "outputs": [],
      "stateMutability": "nonpayable",
      "type": "function"
    },
    {
      "inputs": [
        {
          "internalType": "address",
          "name": "_devaddr",
          "type": "address"
        }
      ],
      "name": "setDevFeeReciever",
      "outputs": [],
      "stateMutability": "nonpayable",
      "type": "function"
    },
    {
      "inputs": [
        {
          "internalType": "uint256",
          "name": "_pid",
          "type": "uint256"
        },
        {
          "internalType": "bool",
          "name": "_withdrawable",
          "type": "bool"
        }
      ],
      "name": "setPoolWithdrawable",
      "outputs": [],
      "stateMutability": "nonpayable",
      "type": "function"
    },
    {
      "inputs": [
        {
          "internalType": "address",
          "name": "tokenAddress",
          "type": "address"
        },
        {
          "internalType": "uint256",
          "name": "_amount",
          "type": "uint256"
        },
        {
          "internalType": "address",
          "name": "contractAddress",
          "type": "address"
        }
      ],
      "name": "setStrategyContractOrDistributionContractAllowance",
      "outputs": [],
      "stateMutability": "nonpayable",
      "type": "function"
    },
    {
      "inputs": [],
      "name": "startNewEpoch",
      "outputs": [],
      "stateMutability": "nonpayable",
      "type": "function"
    },
    {
      "inputs": [],
      "name": "superAdmin",
      "outputs": [
        {
          "internalType": "address",
          "name": "",
          "type": "address"
        }
      ],
      "stateMutability": "view",
      "type": "function"
    },
    {
      "inputs": [],
      "name": "totalAllocPoint",
      "outputs": [
        {
          "internalType": "uint256",
          "name": "",
          "type": "uint256"
        }
      ],
      "stateMutability": "view",
      "type": "function"
    },
    {
      "inputs": [],
      "name": "transferDevFee",
      "outputs": [],
      "stateMutability": "nonpayable",
      "type": "function"
    },
    {
      "inputs": [
        {
          "internalType": "address",
          "name": "newOwner",
          "type": "address"
        }
      ],
      "name": "transferOwnership",
      "outputs": [],
      "stateMutability": "nonpayable",
      "type": "function"
    },
    {
      "inputs": [
        {
          "internalType": "uint256",
          "name": "",
          "type": "uint256"
        },
        {
          "internalType": "address",
          "name": "",
          "type": "address"
        }
      ],
      "name": "userInfo",
      "outputs": [
        {
          "internalType": "uint256",
          "name": "amount",
          "type": "uint256"
        },
        {
          "internalType": "uint256",
          "name": "rewardDebt",
          "type": "uint256"
        }
      ],
      "stateMutability": "view",
      "type": "function"
    },
    {
      "inputs": [
        {
          "internalType": "uint256",
          "name": "_pid",
          "type": "uint256"
        },
        {
          "internalType": "uint256",
          "name": "_amount",
          "type": "uint256"
        }
      ],
      "name": "withdraw",
      "outputs": [],
      "stateMutability": "nonpayable",
      "type": "function"
    },
    {
      "inputs": [
        {
          "internalType": "address",
          "name": "owner",
          "type": "address"
        },
        {
          "internalType": "uint256",
          "name": "_pid",
          "type": "uint256"
        },
        {
          "internalType": "uint256",
          "name": "_amount",
          "type": "uint256"
        }
      ],
      "name": "withdrawFrom",
      "outputs": [],
      "stateMutability": "nonpayable",
      "type": "function"
    }
  ],
  "bytecode": "0x608060405234801561001057600080fd5b50614637806100206000396000f3fe608060405234801561001057600080fd5b50600436106102535760003560e01c806364482f7911610146578063c0c53b8b116100c3578063dbe0901f11610087578063dbe0901f146109ca578063e18cb4fe14610a22578063e2bbb15814610a54578063eded3fda14610a8c578063f2f4eb2614610aaa578063f2fde38b14610ade57610253565b8063c0c53b8b14610820578063c4014588146108a4578063c507aeaa14610912578063c8ffb87314610978578063d49e77cd1461099657610253565b8063934eaa501161010a578063934eaa50146106e957806393f1a40b146106f35780639dbc2d901461075c578063a4f00c821461077a578063a676860a146107dc57610253565b806364482f791461062b57806368ed2bdf1461066f578063715018a61461068d5780638da5cb5b14610697578063900cf0cf146106cb57610253565b8063434339f3116101d45780635207cc0d116101985780635207cc0d1461057d5780635312ea8e146105b75780635d577c18146105e5578063608c8d3a14610603578063630b5ba11461062157610253565b8063434339f314610483578063441a3e701461048d57806349c5468d146104c55780634cf5fbf5146104e35780634dc47d341461053b57610253565b806329575f6a1161021b57806329575f6a1461037b5780632d6754e5146103af5780633a0967cd146103f35780633aab0a621461044b578063423d6fa01461045557610253565b806303dec00914610258578063081e3eda146102765780631526fe2714610294578063162790551461030357806317caf6f11461035d575b600080fd5b610260610b22565b6040518082815260200191505060405180910390f35b61027e610b52565b6040518082815260200191505060405180910390f35b6102c0600480360360208110156102aa57600080fd5b8101908080359060200190929190505050610b5f565b604051808573ffffffffffffffffffffffffffffffffffffffff168152602001848152602001838152602001821515815260200194505050505060405180910390f35b6103456004803603602081101561031957600080fd5b81019080803573ffffffffffffffffffffffffffffffffffffffff169060200190929190505050610bc9565b60405180821515815260200191505060405180910390f35b610365610bdc565b6040518082815260200191505060405180910390f35b610383610be2565b604051808273ffffffffffffffffffffffffffffffffffffffff16815260200191505060405180910390f35b6103f1600480360360208110156103c557600080fd5b81019080803573ffffffffffffffffffffffffffffffffffffffff169060200190929190505050610c0c565b005b6104496004803603606081101561040957600080fd5b81019080803573ffffffffffffffffffffffffffffffffffffffff1690602001909291908035906020019092919080359060200190929190505050610d1a565b005b610453610f52565b005b6104816004803603602081101561046b57600080fd5b8101908080359060200190929190505050611027565b005b61048b611211565b005b6104c3600480360360408110156104a357600080fd5b81019080803590602001909291908035906020019092919050505061167d565b005b6104cd61168d565b6040518082815260200191505060405180910390f35b610539600480360360608110156104f957600080fd5b81019080803573ffffffffffffffffffffffffffffffffffffffff1690602001909291908035906020019092919080359060200190929190505050611693565b005b6105676004803603602081101561055157600080fd5b8101908080359060200190929190505050611822565b6040518082815260200191505060405180910390f35b6105b56004803603604081101561059357600080fd5b810190808035906020019092919080351515906020019092919050505061183a565b005b6105e3600480360360208110156105cd57600080fd5b810190808035906020019092919050505061193e565b005b6105ed611ad7565b6040518082815260200191505060405180910390f35b61060b611add565b6040518082815260200191505060405180910390f35b610629611ae3565b005b61066d6004803603606081101561064157600080fd5b810190808035906020019092919080359060200190929190803515159060200190929190505050611b45565b005b610677611c91565b6040518082815260200191505060405180910390f35b610695611c9b565b005b61069f611e26565b604051808273ffffffffffffffffffffffffffffffffffffffff16815260200191505060405180910390f35b6106d3611e50565b6040518082815260200191505060405180910390f35b6106f1611e56565b005b61073f6004803603604081101561070957600080fd5b8101908080359060200190929190803573ffffffffffffffffffffffffffffffffffffffff169060200190929190505050611fc4565b604051808381526020018281526020019250505060405180910390f35b610764611ff5565b6040518082815260200191505060405180910390f35b6107c66004803603604081101561079057600080fd5b8101908080359060200190929190803573ffffffffffffffffffffffffffffffffffffffff169060200190929190505050612039565b6040518082815260200191505060405180910390f35b61081e600480360360208110156107f257600080fd5b81019080803573ffffffffffffffffffffffffffffffffffffffff169060200190929190505050612105565b005b6108a26004803603606081101561083657600080fd5b81019080803573ffffffffffffffffffffffffffffffffffffffff169060200190929190803573ffffffffffffffffffffffffffffffffffffffff169060200190929190803573ffffffffffffffffffffffffffffffffffffffff1690602001909291905050506122f8565b005b610910600480360360608110156108ba57600080fd5b81019080803573ffffffffffffffffffffffffffffffffffffffff16906020019092919080359060200190929190803573ffffffffffffffffffffffffffffffffffffffff1690602001909291905050506124ea565b005b6109766004803603608081101561092857600080fd5b8101908080359060200190929190803573ffffffffffffffffffffffffffffffffffffffff169060200190929190803515159060200190929190803515159060200190929190505050612716565b005b6109806129f4565b6040518082815260200191505060405180910390f35b61099e6129fa565b604051808273ffffffffffffffffffffffffffffffffffffffff16815260200191505060405180910390f35b610a20600480360360608110156109e057600080fd5b81019080803573ffffffffffffffffffffffffffffffffffffffff1690602001909291908035906020019092919080359060200190929190505050612a20565b005b610a5260048036036020811015610a3857600080fd5b81019080803561ffff169060200190929190505050612b35565b005b610a8a60048036036040811015610a6a57600080fd5b810190808035906020019092919080359060200190929190505050612c9b565b005b610a94612e29565b6040518082815260200191505060405180910390f35b610ab2612e2f565b604051808273ffffffffffffffffffffffffffffffffffffffff16815260200191505060405180910390f35b610b2060048036036020811015610af457600080fd5b81019080803573ffffffffffffffffffffffffffffffffffffffff169060200190929190505050612e55565b005b6000610b4d610b3c609e544361306590919063ffffffff16565b60a0546130af90919063ffffffff16565b905090565b6000609980549050905090565b60998181548110610b6c57fe5b90600052602060002090600502016000915090508060000160009054906101000a900473ffffffffffffffffffffffffffffffffffffffff16908060010154908060020154908060030160009054906101000a900460ff16905084565b600080823b905060008111915050919050565b609b5481565b600060a660009054906101000a900473ffffffffffffffffffffffffffffffffffffffff16905090565b610c146130f9565b73ffffffffffffffffffffffffffffffffffffffff16606560009054906101000a900473ffffffffffffffffffffffffffffffffffffffff1673ffffffffffffffffffffffffffffffffffffffff1614610cd6576040517f08c379a00000000000000000000000000000000000000000000000000000000081526004018080602001828103825260208152602001807f4f776e61626c653a2063616c6c6572206973206e6f7420746865206f776e657281525060200191505060405180910390fd5b80609860006101000a81548173ffffffffffffffffffffffffffffffffffffffff021916908373ffffffffffffffffffffffffffffffffffffffff16021790555050565b600060998381548110610d2957fe5b90600052602060002090600502019050818160040160008673ffffffffffffffffffffffffffffffffffffffff1673ffffffffffffffffffffffffffffffffffffffff16815260200190815260200160002060003373ffffffffffffffffffffffffffffffffffffffff1673ffffffffffffffffffffffffffffffffffffffff168152602001908152602001600020541015610e2d576040517f08c379a00000000000000000000000000000000000000000000000000000000081526004018080602001828103825260208152602001807f77697468647261773a20696e73756666696369656e7420616c6c6f77616e636581525060200191505060405180910390fd5b610ebe828260040160008773ffffffffffffffffffffffffffffffffffffffff1673ffffffffffffffffffffffffffffffffffffffff16815260200190815260200160002060003373ffffffffffffffffffffffffffffffffffffffff1673ffffffffffffffffffffffffffffffffffffffff1681526020019081526020016000205461306590919063ffffffff16565b8160040160008673ffffffffffffffffffffffffffffffffffffffff1673ffffffffffffffffffffffffffffffffffffffff16815260200190815260200160002060003373ffffffffffffffffffffffffffffffffffffffff1673ffffffffffffffffffffffffffffffffffffffff16815260200190815260200160002081905550610f4c83838633613101565b50505050565b4361c350609e540110610fcd576040517f08c379a00000000000000000000000000000000000000000000000000000000081526004018080602001828103825260178152602001807f4e65772065706f6368206e6f742072656164792079657400000000000000000081525060200191505060405180910390fd5b60a05460a2600060a15481526020019081526020016000208190555061100060a054609f5461337090919063ffffffff16565b609f81905550600060a08190555043609e8190555060a16000815460010191905081905550565b600061110160a554609760009054906101000a900473ffffffffffffffffffffffffffffffffffffffff1673ffffffffffffffffffffffffffffffffffffffff166370a08231306040518263ffffffff1660e01b8152600401808273ffffffffffffffffffffffffffffffffffffffff16815260200191505060206040518083038186803b1580156110b857600080fd5b505afa1580156110cc573d6000803e3d6000fd5b505050506040513d60208110156110e257600080fd5b810190808051906020019092919050505061306590919063ffffffff16565b9050600081111561120d57609760009054906101000a900473ffffffffffffffffffffffffffffffffffffffff1673ffffffffffffffffffffffffffffffffffffffff166370a08231306040518263ffffffff1660e01b8152600401808273ffffffffffffffffffffffffffffffffffffffff16815260200191505060206040518083038186803b15801561119557600080fd5b505afa1580156111a9573d6000803e3d6000fd5b505050506040513d60208110156111bf57600080fd5b810190808051906020019092919050505060a5819055506111eb81609c5461337090919063ffffffff16565b609c819055506112068160a05461337090919063ffffffff16565b60a0819055505b5050565b600060a45414156112215761167b565b6000609760009054906101000a900473ffffffffffffffffffffffffffffffffffffffff1673ffffffffffffffffffffffffffffffffffffffff166370a08231306040518263ffffffff1660e01b8152600401808273ffffffffffffffffffffffffffffffffffffffff16815260200191505060206040518083038186803b1580156112ac57600080fd5b505afa1580156112c0573d6000803e3d6000fd5b505050506040513d60208110156112d657600080fd5b810190808051906020019092919050505090508060a45411156114b357609760009054906101000a900473ffffffffffffffffffffffffffffffffffffffff1673ffffffffffffffffffffffffffffffffffffffff1663a9059cbb609860009054906101000a900473ffffffffffffffffffffffffffffffffffffffff16836040518363ffffffff1660e01b8152600401808373ffffffffffffffffffffffffffffffffffffffff16815260200182815260200192505050602060405180830381600087803b1580156113a857600080fd5b505af11580156113bc573d6000803e3d6000fd5b505050506040513d60208110156113d257600080fd5b810190808051906020019092919050505050609760009054906101000a900473ffffffffffffffffffffffffffffffffffffffff1673ffffffffffffffffffffffffffffffffffffffff166370a08231306040518263ffffffff1660e01b8152600401808273ffffffffffffffffffffffffffffffffffffffff16815260200191505060206040518083038186803b15801561146d57600080fd5b505afa158015611481573d6000803e3d6000fd5b505050506040513d602081101561149757600080fd5b810190808051906020019092919050505060a581905550611671565b609760009054906101000a900473ffffffffffffffffffffffffffffffffffffffff1673ffffffffffffffffffffffffffffffffffffffff1663a9059cbb609860009054906101000a900473ffffffffffffffffffffffffffffffffffffffff1660a4546040518363ffffffff1660e01b8152600401808373ffffffffffffffffffffffffffffffffffffffff16815260200182815260200192505050602060405180830381600087803b15801561156a57600080fd5b505af115801561157e573d6000803e3d6000fd5b505050506040513d602081101561159457600080fd5b810190808051906020019092919050505050609760009054906101000a900473ffffffffffffffffffffffffffffffffffffffff1673ffffffffffffffffffffffffffffffffffffffff166370a08231306040518263ffffffff1660e01b8152600401808273ffffffffffffffffffffffffffffffffffffffff16815260200191505060206040518083038186803b15801561162f57600080fd5b505afa158015611643573d6000803e3d6000fd5b505050506040513d602081101561165957600080fd5b810190808051906020019092919050505060a5819055505b600060a481905550505b565b61168982823333613101565b5050565b609d5481565b6000609983815481106116a257fe5b906000526020600020906005020190506000609a600085815260200190815260200160002060008673ffffffffffffffffffffffffffffffffffffffff1673ffffffffffffffffffffffffffffffffffffffff168152602001908152602001600020905061170e611ae3565b61171884866133f8565b6000831115611792576117723330858560000160009054906101000a900473ffffffffffffffffffffffffffffffffffffffff1673ffffffffffffffffffffffffffffffffffffffff166134e6909392919063ffffffff16565b61178983826000015461337090919063ffffffff16565b81600001819055505b6117c464e8d4a510006117b6846002015484600001546135a790919063ffffffff16565b6130af90919063ffffffff16565b8160010181905550838573ffffffffffffffffffffffffffffffffffffffff167f90890809c654f11d6e72a28fa60149770a0d11ec6c92319d6ceb2bb0a4ea1a15856040518082815260200191505060405180910390a35050505050565b60a26020528060005260406000206000915090505481565b6118426130f9565b73ffffffffffffffffffffffffffffffffffffffff16606560009054906101000a900473ffffffffffffffffffffffffffffffffffffffff1673ffffffffffffffffffffffffffffffffffffffff1614611904576040517f08c379a00000000000000000000000000000000000000000000000000000000081526004018080602001828103825260208152602001807f4f776e61626c653a2063616c6c6572206973206e6f7420746865206f776e657281525060200191505060405180910390fd5b806099838154811061191257fe5b906000526020600020906005020160030160006101000a81548160ff0219169083151502179055505050565b60006099828154811061194d57fe5b906000526020600020906005020190508060030160009054906101000a900460ff166119c4576040517f08c379a000000000000000000000000000000000000000000000000000000000815260040180806020018281038252602681526020018061458c6026913960400191505060405180910390fd5b6000609a600084815260200190815260200160002060003373ffffffffffffffffffffffffffffffffffffffff1673ffffffffffffffffffffffffffffffffffffffff1681526020019081526020016000209050611a6b3382600001548460000160009054906101000a900473ffffffffffffffffffffffffffffffffffffffff1673ffffffffffffffffffffffffffffffffffffffff1661362d9092919063ffffffff16565b823373ffffffffffffffffffffffffffffffffffffffff167fbb757047c2b5f3974fe26b7c10f732e7bce710b0952a71082702781e62ae059583600001546040518082815260200191505060405180910390a36000816000018190555060008160010181905550505050565b609e5481565b60a05481565b60006099805490509050600080600090505b82811015611b2557611b18611b09826136cf565b8361337090919063ffffffff16565b9150806001019050611af5565b50611b3b81609c5461306590919063ffffffff16565b609c819055505050565b611b4d6130f9565b73ffffffffffffffffffffffffffffffffffffffff16606560009054906101000a900473ffffffffffffffffffffffffffffffffffffffff1673ffffffffffffffffffffffffffffffffffffffff1614611c0f576040517f08c379a00000000000000000000000000000000000000000000000000000000081526004018080602001828103825260208152602001807f4f776e61626c653a2063616c6c6572206973206e6f7420746865206f776e657281525060200191505060405180910390fd5b8015611c1e57611c1d611ae3565b5b611c6382611c5560998681548110611c3257fe5b906000526020600020906005020160010154609b5461306590919063ffffffff16565b61337090919063ffffffff16565b609b819055508160998481548110611c7757fe5b906000526020600020906005020160010181905550505050565b600060a454905090565b611ca36130f9565b73ffffffffffffffffffffffffffffffffffffffff16606560009054906101000a900473ffffffffffffffffffffffffffffffffffffffff1673ffffffffffffffffffffffffffffffffffffffff1614611d65576040517f08c379a00000000000000000000000000000000000000000000000000000000081526004018080602001828103825260208152602001807f4f776e61626c653a2063616c6c6572206973206e6f7420746865206f776e657281525060200191505060405180910390fd5b600073ffffffffffffffffffffffffffffffffffffffff16606560009054906101000a900473ffffffffffffffffffffffffffffffffffffffff1673ffffffffffffffffffffffffffffffffffffffff167f8be0079c531659141344cd1fd0a4f28419497f9722a3daafe3b4186f6b6457e060405160405180910390a36000606560006101000a81548173ffffffffffffffffffffffffffffffffffffffff021916908373ffffffffffffffffffffffffffffffffffffffff160217905550565b6000606560009054906101000a900473ffffffffffffffffffffffffffffffffffffffff16905090565b60a15481565b611e5e6130f9565b73ffffffffffffffffffffffffffffffffffffffff1660a660009054906101000a900473ffffffffffffffffffffffffffffffffffffffff1673ffffffffffffffffffffffffffffffffffffffff1614611f03576040517f08c379a00000000000000000000000000000000000000000000000000000000081526004018080602001828103825260288152602001806145156028913960400191505060405180910390fd5b600073ffffffffffffffffffffffffffffffffffffffff1660a660009054906101000a900473ffffffffffffffffffffffffffffffffffffffff1673ffffffffffffffffffffffffffffffffffffffff167ff564c40f4f45e62a2c1e6c22e8bfb46501f0f71fa1c72e5358903fa1115a4b6460405160405180910390a3600060a660006101000a81548173ffffffffffffffffffffffffffffffffffffffff021916908373ffffffffffffffffffffffffffffffffffffffff160217905550565b609a602052816000526040600020602052806000526040600020600091509150508060000154908060010154905082565b600061203461200f609d544361306590919063ffffffff16565b61202660a054609f5461337090919063ffffffff16565b6130af90919063ffffffff16565b905090565b6000806099848154811061204957fe5b906000526020600020906005020190506000609a600086815260200190815260200160002060008573ffffffffffffffffffffffffffffffffffffffff1673ffffffffffffffffffffffffffffffffffffffff16815260200190815260200160002090506000826002015490506120fa82600101546120ec64e8d4a510006120de8587600001546135a790919063ffffffff16565b6130af90919063ffffffff16565b61306590919063ffffffff16565b935050505092915050565b61210d6130f9565b73ffffffffffffffffffffffffffffffffffffffff1660a660009054906101000a900473ffffffffffffffffffffffffffffffffffffffff1673ffffffffffffffffffffffffffffffffffffffff16146121b2576040517f08c379a00000000000000000000000000000000000000000000000000000000081526004018080602001828103825260288152602001806145156028913960400191505060405180910390fd5b600073ffffffffffffffffffffffffffffffffffffffff168173ffffffffffffffffffffffffffffffffffffffff161415612238576040517f08c379a00000000000000000000000000000000000000000000000000000000081526004018080602001828103825260268152602001806144ca6026913960400191505060405180910390fd5b8073ffffffffffffffffffffffffffffffffffffffff1660a660009054906101000a900473ffffffffffffffffffffffffffffffffffffffff1673ffffffffffffffffffffffffffffffffffffffff167ff564c40f4f45e62a2c1e6c22e8bfb46501f0f71fa1c72e5358903fa1115a4b6460405160405180910390a38060a660006101000a81548173ffffffffffffffffffffffffffffffffffffffff021916908373ffffffffffffffffffffffffffffffffffffffff16021790555050565b600060019054906101000a900460ff168061231757506123166138bf565b5b8061232d575060008054906101000a900460ff16155b612382576040517f08c379a000000000000000000000000000000000000000000000000000000000815260040180806020018281038252602e81526020018061455e602e913960400191505060405180910390fd5b60008060019054906101000a900460ff1615905080156123d2576001600060016101000a81548160ff02191690831515021790555060016000806101000a81548160ff0219169083151502179055505b6123da6138d6565b6102d460a360006101000a81548161ffff021916908361ffff16021790555083609760006101000a81548173ffffffffffffffffffffffffffffffffffffffff021916908373ffffffffffffffffffffffffffffffffffffffff16021790555082609860006101000a81548173ffffffffffffffffffffffffffffffffffffffff021916908373ffffffffffffffffffffffffffffffffffffffff16021790555043609d819055508160a660006101000a81548173ffffffffffffffffffffffffffffffffffffffff021916908373ffffffffffffffffffffffffffffffffffffffff16021790555080156124e45760008060016101000a81548160ff0219169083151502179055505b50505050565b6124f26130f9565b73ffffffffffffffffffffffffffffffffffffffff1660a660009054906101000a900473ffffffffffffffffffffffffffffffffffffffff1673ffffffffffffffffffffffffffffffffffffffff1614612597576040517f08c379a00000000000000000000000000000000000000000000000000000000081526004018080602001828103825260288152602001806145156028913960400191505060405180910390fd5b6125a081610bc9565b6125f5576040517f08c379a00000000000000000000000000000000000000000000000000000000081526004018080602001828103825260258152602001806144f06025913960400191505060405180910390fd5b61260d62017318609d5461337090919063ffffffff16565b4311612664576040517f08c379a00000000000000000000000000000000000000000000000000000000081526004018080602001828103825260268152602001806145b26026913960400191505060405180910390fd5b8273ffffffffffffffffffffffffffffffffffffffff1663095ea7b382846040518363ffffffff1660e01b8152600401808373ffffffffffffffffffffffffffffffffffffffff16815260200182815260200192505050602060405180830381600087803b1580156126d557600080fd5b505af11580156126e9573d6000803e3d6000fd5b505050506040513d60208110156126ff57600080fd5b810190808051906020019092919050505050505050565b61271e6130f9565b73ffffffffffffffffffffffffffffffffffffffff16606560009054906101000a900473ffffffffffffffffffffffffffffffffffffffff1673ffffffffffffffffffffffffffffffffffffffff16146127e0576040517f08c379a00000000000000000000000000000000000000000000000000000000081526004018080602001828103825260208152602001807f4f776e61626c653a2063616c6c6572206973206e6f7420746865206f776e657281525060200191505060405180910390fd5b81156127ef576127ee611ae3565b5b6000609980549050905060005b818110156128ef578473ffffffffffffffffffffffffffffffffffffffff166099828154811061282857fe5b906000526020600020906005020160000160009054906101000a900473ffffffffffffffffffffffffffffffffffffffff1673ffffffffffffffffffffffffffffffffffffffff1614156128e4576040517f08c379a00000000000000000000000000000000000000000000000000000000081526004018080602001828103825260188152602001807f4572726f7220706f6f6c20616c7265616479206164646564000000000000000081525060200191505060405180910390fd5b8060010190506127fc565b5061290585609b5461337090919063ffffffff16565b609b81905550609960405180608001604052808673ffffffffffffffffffffffffffffffffffffffff16815260200187815260200160008152602001841515815250908060018154018082558091505060019003906000526020600020906005020160009091909190915060008201518160000160006101000a81548173ffffffffffffffffffffffffffffffffffffffff021916908373ffffffffffffffffffffffffffffffffffffffff160217905550602082015181600101556040820151816002015560608201518160030160006101000a81548160ff02191690831515021790555050505050505050565b609f5481565b609860009054906101000a900473ffffffffffffffffffffffffffffffffffffffff1681565b600060998381548110612a2f57fe5b90600052602060002090600502019050818160040160003373ffffffffffffffffffffffffffffffffffffffff1673ffffffffffffffffffffffffffffffffffffffff16815260200190815260200160002060008673ffffffffffffffffffffffffffffffffffffffff1673ffffffffffffffffffffffffffffffffffffffff168152602001908152602001600020819055508373ffffffffffffffffffffffffffffffffffffffff163373ffffffffffffffffffffffffffffffffffffffff167fb3fd5071835887567a0671151121894ddccc2842f1d10bedad13e0d17cace9a78585604051808381526020018281526020019250505060405180910390a350505050565b612b3d6130f9565b73ffffffffffffffffffffffffffffffffffffffff16606560009054906101000a900473ffffffffffffffffffffffffffffffffffffffff1673ffffffffffffffffffffffffffffffffffffffff1614612bff576040517f08c379a00000000000000000000000000000000000000000000000000000000081526004018080602001828103825260208152602001807f4f776e61626c653a2063616c6c6572206973206e6f7420746865206f776e657281525060200191505060405180910390fd5b6103e88161ffff161115612c7b576040517f08c379a00000000000000000000000000000000000000000000000000000000081526004018080602001828103825260168152602001807f4465762066656520636c616d706564206174203130250000000000000000000081525060200191505060405180910390fd5b8060a360006101000a81548161ffff021916908361ffff16021790555050565b600060998381548110612caa57fe5b906000526020600020906005020190506000609a600085815260200190815260200160002060003373ffffffffffffffffffffffffffffffffffffffff1673ffffffffffffffffffffffffffffffffffffffff1681526020019081526020016000209050612d16611ae3565b612d2084336133f8565b6000831115612d9a57612d7a3330858560000160009054906101000a900473ffffffffffffffffffffffffffffffffffffffff1673ffffffffffffffffffffffffffffffffffffffff166134e6909392919063ffffffff16565b612d9183826000015461337090919063ffffffff16565b81600001819055505b612dcc64e8d4a51000612dbe846002015484600001546135a790919063ffffffff16565b6130af90919063ffffffff16565b8160010181905550833373ffffffffffffffffffffffffffffffffffffffff167f90890809c654f11d6e72a28fa60149770a0d11ec6c92319d6ceb2bb0a4ea1a15856040518082815260200191505060405180910390a350505050565b609c5481565b609760009054906101000a900473ffffffffffffffffffffffffffffffffffffffff1681565b612e5d6130f9565b73ffffffffffffffffffffffffffffffffffffffff16606560009054906101000a900473ffffffffffffffffffffffffffffffffffffffff1673ffffffffffffffffffffffffffffffffffffffff1614612f1f576040517f08c379a00000000000000000000000000000000000000000000000000000000081526004018080602001828103825260208152602001807f4f776e61626c653a2063616c6c6572206973206e6f7420746865206f776e657281525060200191505060405180910390fd5b600073ffffffffffffffffffffffffffffffffffffffff168173ffffffffffffffffffffffffffffffffffffffff161415612fa5576040517f08c379a00000000000000000000000000000000000000000000000000000000081526004018080602001828103825260268152602001806144ca6026913960400191505060405180910390fd5b8073ffffffffffffffffffffffffffffffffffffffff16606560009054906101000a900473ffffffffffffffffffffffffffffffffffffffff1673ffffffffffffffffffffffffffffffffffffffff167f8be0079c531659141344cd1fd0a4f28419497f9722a3daafe3b4186f6b6457e060405160405180910390a380606560006101000a81548173ffffffffffffffffffffffffffffffffffffffff021916908373ffffffffffffffffffffffffffffffffffffffff16021790555050565b60006130a783836040518060400160405280601e81526020017f536166654d6174683a207375627472616374696f6e206f766572666c6f7700008152506139e4565b905092915050565b60006130f183836040518060400160405280601a81526020017f536166654d6174683a206469766973696f6e206279207a65726f000000000000815250613aa4565b905092915050565b600033905090565b60006099858154811061311057fe5b906000526020600020906005020190508060030160009054906101000a900460ff16613187576040517f08c379a000000000000000000000000000000000000000000000000000000000815260040180806020018281038252602681526020018061458c6026913960400191505060405180910390fd5b6000609a600087815260200190815260200160002060008573ffffffffffffffffffffffffffffffffffffffff1673ffffffffffffffffffffffffffffffffffffffff16815260200190815260200160002090508481600001541015613255576040517f08c379a00000000000000000000000000000000000000000000000000000000081526004018080602001828103825260128152602001807f77697468647261773a206e6f7420676f6f64000000000000000000000000000081525060200191505060405180910390fd5b61325d611ae3565b61326786856133f8565b60008511156132df5761328785826000015461306590919063ffffffff16565b81600001819055506132de83868460000160009054906101000a900473ffffffffffffffffffffffffffffffffffffffff1673ffffffffffffffffffffffffffffffffffffffff1661362d9092919063ffffffff16565b5b61331164e8d4a51000613303846002015484600001546135a790919063ffffffff16565b6130af90919063ffffffff16565b8160010181905550858373ffffffffffffffffffffffffffffffffffffffff167ff279e6a1f5e320cca91135676d9cb6e44ca8a08c0b88342bcdb1144f6511b568876040518082815260200191505060405180910390a3505050505050565b6000808284019050838110156133ee576040517f08c379a000000000000000000000000000000000000000000000000000000000815260040180806020018281038252601b8152602001807f536166654d6174683a206164646974696f6e206f766572666c6f77000000000081525060200191505060405180910390fd5b8091505092915050565b6000609a600084815260200190815260200160002060008373ffffffffffffffffffffffffffffffffffffffff1673ffffffffffffffffffffffffffffffffffffffff168152602001908152602001600020905060008160000154141561345f57506134e2565b60006099848154811061346e57fe5b9060005260206000209060050201905060006134c883600101546134ba64e8d4a510006134ac866002015488600001546135a790919063ffffffff16565b6130af90919063ffffffff16565b61306590919063ffffffff16565b905060008111156134de576134dd8482613b6a565b5b5050505b5050565b6135a1846323b872dd60e01b858585604051602401808473ffffffffffffffffffffffffffffffffffffffff1681526020018373ffffffffffffffffffffffffffffffffffffffff1681526020018281526020019350505050604051602081830303815290604052907bffffffffffffffffffffffffffffffffffffffffffffffffffffffff19166020820180517bffffffffffffffffffffffffffffffffffffffffffffffffffffffff8381831617835250505050613f8e565b50505050565b6000808314156135ba5760009050613627565b60008284029050828482816135cb57fe5b0414613622576040517f08c379a000000000000000000000000000000000000000000000000000000000815260040180806020018281038252602181526020018061453d6021913960400191505060405180910390fd5b809150505b92915050565b6136ca8363a9059cbb60e01b8484604051602401808373ffffffffffffffffffffffffffffffffffffffff16815260200182815260200192505050604051602081830303815290604052907bffffffffffffffffffffffffffffffffffffffffffffffffffffffff19166020820180517bffffffffffffffffffffffffffffffffffffffffffffffffffffffff8381831617835250505050613f8e565b505050565b600080609983815481106136df57fe5b9060005260206000209060050201905060008160000160009054906101000a900473ffffffffffffffffffffffffffffffffffffffff1673ffffffffffffffffffffffffffffffffffffffff166370a08231306040518263ffffffff1660e01b8152600401808273ffffffffffffffffffffffffffffffffffffffff16815260200191505060206040518083038186803b15801561377c57600080fd5b505afa158015613790573d6000803e3d6000fd5b505050506040513d60208110156137a657600080fd5b8101908080519060200190929190505050905060008114156137cd576000925050506138ba565b6137fa609b546137ec8460010154609c546135a790919063ffffffff16565b6130af90919063ffffffff16565b9250600061383961271061382b60a360009054906101000a900461ffff1661ffff16876135a790919063ffffffff16565b6130af90919063ffffffff16565b90506000613850828661306590919063ffffffff16565b90506138678260a45461337090919063ffffffff16565b60a4819055506138ad61389a8461388c64e8d4a51000856135a790919063ffffffff16565b6130af90919063ffffffff16565b856002015461337090919063ffffffff16565b8460020181905550505050505b919050565b6000803090506000813b9050600081149250505090565b600060019054906101000a900460ff16806138f557506138f46138bf565b5b8061390b575060008054906101000a900460ff16155b613960576040517f08c379a000000000000000000000000000000000000000000000000000000000815260040180806020018281038252602e81526020018061455e602e913960400191505060405180910390fd5b60008060019054906101000a900460ff1615905080156139b0576001600060016101000a81548160ff02191690831515021790555060016000806101000a81548160ff0219169083151502179055505b6139b86141d9565b6139c06142d7565b80156139e15760008060016101000a81548160ff0219169083151502179055505b50565b6000838311158290613a91576040517f08c379a00000000000000000000000000000000000000000000000000000000081526004018080602001828103825283818151815260200191508051906020019080838360005b83811015613a56578082015181840152602081019050613a3b565b50505050905090810190601f168015613a835780820380516001836020036101000a031916815260200191505b509250505060405180910390fd5b5060008385039050809150509392505050565b60008083118290613b50576040517f08c379a00000000000000000000000000000000000000000000000000000000081526004018080602001828103825283818151815260200191508051906020019080838360005b83811015613b15578082015181840152602081019050613afa565b50505050905090810190601f168015613b425780820380516001836020036101000a031916815260200191505b509250505060405180910390fd5b506000838581613b5c57fe5b049050809150509392505050565b6000811415613b7857613f8a565b6000609760009054906101000a900473ffffffffffffffffffffffffffffffffffffffff1673ffffffffffffffffffffffffffffffffffffffff166370a08231306040518263ffffffff1660e01b8152600401808273ffffffffffffffffffffffffffffffffffffffff16815260200191505060206040518083038186803b158015613c0357600080fd5b505afa158015613c17573d6000803e3d6000fd5b505050506040513d6020811015613c2d57600080fd5b8101908080519060200190929190505050905080821115613de657609760009054906101000a900473ffffffffffffffffffffffffffffffffffffffff1673ffffffffffffffffffffffffffffffffffffffff1663a9059cbb84836040518363ffffffff1660e01b8152600401808373ffffffffffffffffffffffffffffffffffffffff16815260200182815260200192505050602060405180830381600087803b158015613cdb57600080fd5b505af1158015613cef573d6000803e3d6000fd5b505050506040513d6020811015613d0557600080fd5b810190808051906020019092919050505050609760009054906101000a900473ffffffffffffffffffffffffffffffffffffffff1673ffffffffffffffffffffffffffffffffffffffff166370a08231306040518263ffffffff1660e01b8152600401808273ffffffffffffffffffffffffffffffffffffffff16815260200191505060206040518083038186803b158015613da057600080fd5b505afa158015613db4573d6000803e3d6000fd5b505050506040513d6020811015613dca57600080fd5b810190808051906020019092919050505060a581905550613f80565b609760009054906101000a900473ffffffffffffffffffffffffffffffffffffffff1673ffffffffffffffffffffffffffffffffffffffff1663a9059cbb84846040518363ffffffff1660e01b8152600401808373ffffffffffffffffffffffffffffffffffffffff16815260200182815260200192505050602060405180830381600087803b158015613e7957600080fd5b505af1158015613e8d573d6000803e3d6000fd5b505050506040513d6020811015613ea357600080fd5b810190808051906020019092919050505050609760009054906101000a900473ffffffffffffffffffffffffffffffffffffffff1673ffffffffffffffffffffffffffffffffffffffff166370a08231306040518263ffffffff1660e01b8152600401808273ffffffffffffffffffffffffffffffffffffffff16815260200191505060206040518083038186803b158015613f3e57600080fd5b505afa158015613f52573d6000803e3d6000fd5b505050506040513d6020811015613f6857600080fd5b810190808051906020019092919050505060a5819055505b613f88611211565b505b5050565b613fad8273ffffffffffffffffffffffffffffffffffffffff1661447e565b61401f576040517f08c379a000000000000000000000000000000000000000000000000000000000815260040180806020018281038252601f8152602001807f5361666545524332303a2063616c6c20746f206e6f6e2d636f6e74726163740081525060200191505060405180910390fd5b600060608373ffffffffffffffffffffffffffffffffffffffff16836040518082805190602001908083835b6020831061406e578051825260208201915060208101905060208303925061404b565b6001836020036101000a0380198251168184511680821785525050505050509050019150506000604051808303816000865af19150503d80600081146140d0576040519150601f19603f3d011682016040523d82523d6000602084013e6140d5565b606091505b50915091508161414d576040517f08c379a00000000000000000000000000000000000000000000000000000000081526004018080602001828103825260208152602001807f5361666545524332303a206c6f772d6c6576656c2063616c6c206661696c656481525060200191505060405180910390fd5b6000815111156141d35780806020019051602081101561416c57600080fd5b81019080805190602001909291905050506141d2576040517f08c379a000000000000000000000000000000000000000000000000000000000815260040180806020018281038252602a8152602001806145d8602a913960400191505060405180910390fd5b5b50505050565b600060019054906101000a900460ff16806141f857506141f76138bf565b5b8061420e575060008054906101000a900460ff16155b614263576040517f08c379a000000000000000000000000000000000000000000000000000000000815260040180806020018281038252602e81526020018061455e602e913960400191505060405180910390fd5b60008060019054906101000a900460ff1615905080156142b3576001600060016101000a81548160ff02191690831515021790555060016000806101000a81548160ff0219169083151502179055505b80156142d45760008060016101000a81548160ff0219169083151502179055505b50565b600060019054906101000a900460ff16806142f657506142f56138bf565b5b8061430c575060008054906101000a900460ff16155b614361576040517f08c379a000000000000000000000000000000000000000000000000000000000815260040180806020018281038252602e81526020018061455e602e913960400191505060405180910390fd5b60008060019054906101000a900460ff1615905080156143b1576001600060016101000a81548160ff02191690831515021790555060016000806101000a81548160ff0219169083151502179055505b60006143bb6130f9565b905080606560006101000a81548173ffffffffffffffffffffffffffffffffffffffff021916908373ffffffffffffffffffffffffffffffffffffffff1602179055508073ffffffffffffffffffffffffffffffffffffffff16600073ffffffffffffffffffffffffffffffffffffffff167f8be0079c531659141344cd1fd0a4f28419497f9722a3daafe3b4186f6b6457e060405160405180910390a350801561447b5760008060016101000a81548160ff0219169083151502179055505b50565b60008060007fc5d2460186f7233c927e7db2dcc703c0e500b653ca82273b7bfad8045d85a47060001b9050833f91508082141580156144c057506000801b8214155b9250505091905056fe4f776e61626c653a206e6577206f776e657220697320746865207a65726f20616464726573735265636970656e74206973206e6f74206120736d61727420636f6e74726163742c2042414453757065722061646d696e203a2063616c6c6572206973206e6f742073757065722061646d696e2e536166654d6174683a206d756c7469706c69636174696f6e206f766572666c6f77436f6e747261637420696e7374616e63652068617320616c7265616479206265656e20696e697469616c697a65645769746864726177696e672066726f6d207468697320706f6f6c2069732064697361626c6564476f7665726e616e636520736574757020677261636520706572696f64206e6f74206f7665725361666545524332303a204552433230206f7065726174696f6e20646964206e6f742073756363656564a26469706673582212204c6dc4f1509d98254516213b0d75eb27a3a10dcf6cbb4d4d920a67074e37af3f64736f6c634300060c0033",
  "compiler": {
    "name": "solc",
    "version": "0.6.12+commit.27d51765.Emscripten.clang",
    "optimizer": {
      "enabled": false,
      "runs": 200
    },
    "evmVersion": "istanbul"
  }
}